:020000040000FA
:0400000080EF00F09D
:020004000000FA
:080008000E6ED8CF0FF0E0CF1F
:100010000CF081A822EC01F081AA2FEC01F081AC58
:1000200040EC01F00CC0E0FF0E500FC0D8FF3CECDC
:0600300002F0F290100046
:10010000946A9480956AFF0E936E000E836E880E3B
:10011000F26EF18282888296030ECD6E000ECE6E54
:10012000000ECF6E380E1CEC02F00C0E1CEC02F030
:10013000010E1CEC02F051EC01F042C041F0CE6A1D
:10014000CF6A3CEC02F03CEC02F03CEC02F03CEC00
:1001500002F03CEC02F03CEC02F03CEC02F03CEC37
:1001600002F03CEC02F03CEC02F0CECF46F0CFCFF8
:1001700045F0C00E1CEC02F0EDEC00F04A504D6E64
:100180004DC04EF04F6A506A516A526A536A546ABF
:1001900010EC01F05450300F516E515016EC02F03B
:1001A000546A16EC01F05450300F526E525016EC57
:1001B00002F05050300F536E535016EC02F0200EE8
:1001C00016EC02F0720E16EC02F0700E16EC02F055
:1001D0006D0E16EC02F09FEF00F0290E486E000E37
:1001E000476E46504802F4CF4AF0F3CF49F04550ED
:1001F0004802F3504A26F4CF4BF0E86A4B224650AF
:100200004702F3504A26F4504B26E86A4B224550E9
:100210004702F3504B26F4CF4CF0E86A4C22120010
:100220004EC04FF0640E4E5E07E212004FC050F019
:100230000A0E4F5E04E21200542A10EF01F0542A15
:1002400016EF01F04150000AD8B480EC01F04150A3
:10025000000AD8A451EC01F042C041F01200415014
:10026000000AD8B412004150010AD8B4B2EC01F02F
:100270004150020AD8B4E4EC01F042C041F012004F
:100280004150000AD8B412004150030AD8B4B2EC6D
:1002900001F04150020AD8B480EC01F042C041F0B4
:1002A0001200000E426E010E1CEC02F0630ECB6ECB
:1002B0000C0EBD6E000EBE6E050ECA6E430E16EC21
:1002C00002F0610E16EC02F0690E16EC02F0200E40
:1002D00016EC02F0640E16EC02F0610E16EC02F061
:1002E000740E16EC02F03A0E16EC02F0300E16EC1C
:1002F00002F0250E16EC02F0C00E1CEC02F012000B
:10030000010E426E010E1CEC02F0630ECB6E0C0E61
:10031000BD6E210EBE6E050ECA6E430E16EC02F0C7
:10032000610E16EC02F0690E16EC02F0200E16ECCF
:1003300002F0640E16EC02F0610E16EC02F0740E80
:1003400016EC02F03A0E16EC02F0330E16EC02F048
:10035000330E16EC02F0250E16EC02F0C00E1CEC6B
:1003600002F01200020E426E010E1CEC02F0630E4F
:10037000CB6E0C0EBD6E320EBE6E050ECA6E430EF7
:1003800016EC02F0610E16EC02F0690E16EC02F0AB
:10039000200E16EC02F0640E16EC02F0610E16EC64
:1003A00002F0740E16EC02F03A0E16EC02F0350E66
:1003B00016EC02F0300E16EC02F0250E16EC02F0F0
:1003C000C00E1CEC02F01200030E426E010E1CEC7B
:1003D00002F0630ECB6E0C0EBD6E420EBE6E050EAD
:1003E000CA6E430E16EC02F0610E16EC02F0690EB6
:1003F00016EC02F0200E16EC02F0640E16EC02F081
:10040000610E16EC02F0740E16EC02F03A0E16ECC9
:1004100002F0360E16EC02F0360E16EC02F0250E47
:1004200016EC02F0C00E1CEC02F01200829C828AD4
:10043000836E22EC02F01200829C829A836E22EC80
:1004400002F01200828E35EC02F035EC02F0829E52
:1004500035EC02F035EC02F035EC02F035EC02F050
:1004600035EC02F035EC02F01200C70E436E0000CE
:10047000432E37EF02F01200C70E446E35EC02F047
:08048000442E3EEF02F01200D1
:020000040030CA
:0100010007F7
:010002001FDE
:010003001EDE
:0100050001F9
:010006008079
:010008000FE8
:01000900C036
:01000A000FE6
:01000B00E014
:01000C000FE4
:01000D0040B2
:00000001FF
