:020000040000FA
:0400000028EF00F0F5
:020004000000FA
:080008000E6ED8CF0FF0E0CF1F
:100010000CF081A844EC00F081AA51EC00F081AC16
:1000200062EC00F00CC0E0FF0E500FC0D8FF5EEC99
:0600300001F0F290100047
:10005000946A956AFF0E936E000E836E880EF26EA0
:10006000F18282888296380E3EEC01F00C0E3EEC56
:1000700001F0010E3EEC01F073EC00F042C041F0E3
:10008000000ECD6E40EF00F04150000AD8B4A2EC53
:1000900000F04150000AD8A473EC00F042C041F0D7
:1000A00012004150000AD8B412004150010AD8B4DD
:1000B000D4EC00F04150020AD8B406EC01F042C082
:1000C00041F012004150000AD8B412004150030A16
:1000D000D8B4D4EC00F04150020AD8B4A2EC00F03D
:1000E00042C041F01200000E426E010E3EEC01F0E3
:1000F000630ECB6E0C0EBD6E210EBE6E000ECA6E70
:10010000430E38EC01F0610E38EC01F0690E38EC6A
:1001100001F0200E38EC01F0640E38EC01F0610EB5
:1001200038EC01F0740E38EC01F03A0E38EC01F0C6
:10013000300E38EC01F0250E38EC01F0C00E3EEC2C
:1001400001F01200010E426E010E3EEC01F0630E52
:10015000CB6E0C0EBD6E210EBE6E050ECA6E430E2A
:1001600038EC01F0610E38EC01F0690E38EC01F06A
:10017000200E38EC01F0640E38EC01F0610E38EC22
:1001800001F0740E38EC01F03A0E38EC01F0330E49
:1001900038EC01F0330E38EC01F0250E38EC01F0AC
:1001A000C00E3EEC01F01200020E426E010E3EEC5B
:1001B00001F0630ECB6E0C0EBD6E320EBE6E050EE0
:1001C000CA6E430E38EC01F0610E38EC01F0690E96
:1001D00038EC01F0200E38EC01F0640E38EC01F040
:1001E000610E38EC01F0740E38EC01F03A0E38EC88
:1001F00001F0350E38EC01F0300E38EC01F0250E30
:1002000038EC01F0C00E3EEC01F01200030E426E1D
:10021000010E3EEC01F0630ECB6E0C0EBD6E410E76
:10022000BE6E050ECA6E430E38EC01F0610E38EC5E
:1002300001F0690E38EC01F0200E38EC01F0640E8C
:1002400038EC01F0610E38EC01F0740E38EC01F07E
:100250003A0E38EC01F0360E38EC01F0360E38EC80
:1002600001F0250E38EC01F0C00E3EEC01F012005A
:10027000829C828A836E44EC01F01200829C829AF6
:10028000836E44EC01F01200828E57EC01F057ECC3
:1002900001F0829E57EC01F057EC01F057EC01F0B1
:1002A00057EC01F057EC01F057EC01F01200C70ECB
:1002B000436E0000432E59EF01F01200C70E446E4A
:0C02C00057EC01F0442E60EF01F012003A
:020000040030CA
:0100010007F7
:010002001FDE
:010003001EDE
:0100050001F9
:010006008079
:010008000FE8
:01000900C036
:01000A000FE6
:01000B00E014
:01000C000FE4
:01000D0040B2
:00000001FF
