:020000040000FA
:0400000028EF00F0F5
:020004000000FA
:080008000E6ED8CF0FF0E0CF1F
:100010000CF081A842EC00F081AA4FEC00F081AC1A
:1000200060EC00F00CC0E0FF0E500FC0D8FF5CEC9D
:0600300001F0F290100047
:10005000946A956AFF0E936E000E836E880EF26EA0
:10006000F18282888296380E3CEC01F00C0E3CEC5A
:1000700001F0010E3CEC01F071EC00F042C041F0E7
:1000800040EF00F04150000AD8B4A0EC00F041501D
:10009000000AD8A471EC00F042C041F012004150B7
:1000A000000AD8B412004150010AD8B4D2EC00F0D2
:1000B0004150020AD8B404EC01F042C041F01200F1
:1000C0004150000AD8B412004150030AD8B4D2EC0F
:1000D00000F04150020AD8B4A0EC00F042C041F058
:1000E0001200000E426E010E3CEC01F0630ECB6E6E
:1000F0000C0EBD6E210EBE6E000ECA6E430E36ECA7
:1001000001F0610E36EC01F0690E36EC01F0200EC4
:1001100036EC01F0640E36EC01F0610E36EC01F0C5
:10012000740E36EC01F03A0E36EC01F0300E36EC7F
:1001300001F0250E36EC01F0C00E3CEC01F012008F
:10014000010E426E010E3CEC01F0630ECB6E0C0E04
:10015000BD6E210EBE6E050ECA6E430E36EC01F06A
:10016000610E36EC01F0690E36EC01F0200E36EC33
:1001700001F0640E36EC01F0610E36EC01F0740E05
:1001800036EC01F03A0E36EC01F0330E36EC01F0AD
:10019000330E36EC01F0250E36EC01F0C00E3CECCF
:1001A00001F01200020E426E010E3CEC01F0630EF3
:1001B000CB6E0C0EBD6E320EBE6E050ECA6E430EB9
:1001C00036EC01F0610E36EC01F0690E36EC01F010
:1001D000200E36EC01F0640E36EC01F0610E36ECC8
:1001E00001F0740E36EC01F03A0E36EC01F0350EEB
:1001F00036EC01F0300E36EC01F0250E36EC01F055
:10020000C00E3CEC01F01200030E426E010E3CECFD
:1002100001F0630ECB6E0C0EBD6E410EBE6E050E70
:10022000CA6E430E36EC01F0610E36EC01F0690E39
:1002300036EC01F0200E36EC01F0640E36EC01F0E5
:10024000610E36EC01F0740E36EC01F03A0E36EC2D
:1002500001F0360E36EC01F0360E36EC01F0250ECC
:1002600036EC01F0C00E3CEC01F01200829C828A58
:10027000836E42EC01F01200829C829A836E42EC03
:1002800001F01200828E55EC01F055EC01F0829ED7
:1002900055EC01F055EC01F055EC01F055EC01F096
:1002A00055EC01F055EC01F01200C70E436E000052
:1002B000432E57EF01F01200C70E446E55EC01F0CB
:0802C000442E5EEF01F0120074
:020000040030CA
:0100010007F7
:010002001FDE
:010003001EDE
:0100050001F9
:010006008079
:010008000FE8
:01000900C036
:01000A000FE6
:01000B00E014
:01000C000FE4
:01000D0040B2
:00000001FF
